S0130000436F6E74726F6C5F4543552E73726563F4
S11300000C942A000C943F000C943F000C943F0085
S11300100C943F000C943F000C943F000C943F0060
S11300200C943F000C943F000C943F000C943F0050
S11300300C943F000C943F000C943F000C943F0040
S11300400C943F000C943F000C943F000C943F0030
S11300500C943F0011241FBECFE5D8E0DEBFCDBF16
S113006010E0A0E6B0E0ECEAF4E002C005900D92E6
S1130070AC37B107D9F70E9409010C9454020C94CF
S11300800000683008F05DC08130E1F030F082306B
S113009071F1833009F440C056C02AB381E090E086
S11300A0062E02C0880F991F0A94E2F780958223D6
S11300B050E002C0440F551F6A95E2F7482B4ABB33
S11300C080E0089527B381E090E0062E02C0880FF7
S11300D0991F0A94E2F78095822350E002C0440FEE
S11300E0551F6A95E2F7482B47BB80E0089524B377
S11300F081E090E0062E02C0880F991F0A94E2F76F
S11301008095822350E002C0440F551F6A95E2F7A0
S1130110482B44BB80E0089521B381E090E0062E93
S113012002C0880F991F0A94E2F78095822350E059
S113013002C0440F551F6A95E2F7482B41BB80E08B
S1130140089581E0089581E00895683008F05DC065
S11301508130E1F030F0823071F1833009F440C035
S113016056C02BB381E090E0062E02C0880F991F81
S11301700A94E2F78095822350E002C0440F551F91
S11301806A95E2F7482B4BBB80E0089528B381E0E1
S113019090E0062E02C0880F991F0A94E2F780951A
S11301A0822350E002C0440F551F6A95E2F7482BA2
S11301B048BB80E0089525B381E090E0062E02C09C
S11301C0880F991F0A94E2F78095822350E002C0B9
S11301D0440F551F6A95E2F7482B45BB80E008950C
S11301E022B381E090E0062E02C0880F991F0A9482
S11301F0E2F78095822350E002C0440F551F6A95B0
S1130200E2F7482B42BB80E0089581E0089581E045
S11302100895CF93DF93CDB7DEB76C970FB6F894FC
S1130220DEBF0FBECDBF85E0E0E6F0E0DE01119653
S113023001900D928A95E1F7CE0101960E94550135
S113024060E875E280E090E00E94E70141E062E04E
S113025082E00E94410041E067E082E00E944100A8
S113026087E1E5E6F0E0DE01169601900D928A95AD
S1130270E1F7CE0106960E941C020E941802813307
S113028049F441E062E082E00E94A50081E30E941B
S1130290D701F3CF823389F741E067E082E00E941F
S11302A0A50082E30E94D701E8CFCF93DF93EC014E
S11302B08881813009F04CC041E064E00E94410033
S11302C041E065E081E00E94410040E066E081E0B9
S11302D00E94410041E067E081E00E9441002DB1AD
S11302E0988130E1939FC0011124922F9F7E892B26
S11302F08DB99981923048F48DB1282F2F7D30E249
S1130300939FC0011124822B8DB98A81823038F4E5
S11303109DB1977F880F880F880F892B8DB98B81AA
S1130320823030F49DB19B7F880F880F892B8DB963
S11303308C81883038F42DB19DB12C7F8370822B51
S1130340892B8DB98C81843008F0709A6E9A2CC0F8
S113035081112AC040E064E081E00E94410040E055
S113036065E081E00E94410041E066E081E00E9496
S1130370410040E067E081E00E94410099819230B1
S113038048F48DB1282F2F7D30E2939FC0011124B2
S1130390822B8DB98B81823030F49DB19B7F880F85
S11303A0880F892B8DB96E9ADF91CF9108958FB9FB
S11303B040E064E081E00E94A5006E9A779BFECF46
S11303C06E9841E064E081E00E94A5000895DC019C
S11303D0CB01880F991FAA1FBB1F880F991FAA1F43
S11303E0BB1F9C01AD01220F331F441F551F220F59
S11303F0331F441F551F60E074E284EF90E00E94B5
S11304003202BA01A90141505109610971098AB145
S113041088618AB980B5866880BD49B9BB27A72F92
S1130420962F852F80BD08955D9BFECF8CB90895CE
S11304305F9BFECF8CB108950F931F93CF93FC0164
S11304408081882359F08F01C0E00E941402CF5F9D
S1130450F801EC0FF11D80818111F7CFCF911F912D
S11304600F910895A1E21A2EAA1BBB1BFD010DC01A
S1130470AA1FBB1FEE1FFF1FA217B307E407F50750
S113048020F0A21BB30BE40BF50B661F771F881F2C
S1130490991F1A9469F760957095809590959B01C2
S10F04A0AC01BD01CF010895F894FFCF1A
S11304AC0100000002506C6561736520456E746533
S10F04BC72206120427574746F6E3A0067
S9030000FC
