S0100000536C6176654543552E737265633C
S11300000C942A000C9434000C9434000C943400A6
S11300100C9434000C9434000C9434000C9434008C
S11300200C9434000C9434000C9434000C9434007C
S11300300C9434000C9434000C9434000C9434006C
S11300400C9434000C9434000C9434000C9434005C
S11300500C94340011241FBECFE5D8E0DEBFCDBF21
S11300600E94FE000C94D0010C940000683008F04B
S11300705DC08130E1F030F0823071F1833009F4F9
S113008040C056C02AB381E090E0062E02C0880F1B
S1130090991F0A94E2F78095822350E002C0440F2E
S11300A0551F6A95E2F7482B4ABB80E0089527B3B1
S11300B081E090E0062E02C0880F991F0A94E2F7AF
S11300C08095822350E002C0440F551F6A95E2F7E1
S11300D0482B47BB80E0089524B381E090E0062ECE
S11300E002C0880F991F0A94E2F78095822350E09A
S11300F002C0440F551F6A95E2F7482B44BB80E0C9
S1130100089521B381E090E0062E02C0880F991F64
S11301100A94E2F78095822350E002C0440F551FF1
S11301206A95E2F7482B41BB80E0089581E0089589
S113013081E00895683008F05DC08130E1F030F06E
S1130140823071F1833009F440C056C02BB381E092
S113015090E0062E02C0880F991F0A94E2F780955A
S1130160822350E002C0440F551F6A95E2F7482BE2
S11301704BBB80E0089528B381E090E0062E02C0D6
S1130180880F991F0A94E2F78095822350E002C0F9
S1130190440F551F6A95E2F7482B48BB80E0089549
S11301A025B381E090E0062E02C0880F991F0A94BF
S11301B0E2F78095822350E002C0440F551F6A95F0
S11301C0E2F7482B45BB80E0089522B381E090E03C
S11301D0062E02C0880F991F0A94E2F780958223A5
S11301E050E002C0440F551F6A95E2F7482B42BB0A
S11301F080E0089581E0089581E00895CF93DF932E
S113020000D000D01F92CDB7DEB741E061E083E0BB
S11302100E94360041E062E083E00E943600CE0195
S1130220019625E0FC0111922A95E9F70E94480104
S113023040E061E083E00E949A0040E062E083E0F5
S11302400E949A000E94CA01813381F4819B06C0F6
S113025040E061E083E00E949A00F4CF8199F2CFFC
S113026041E061E083E00E949A00ECCF823351F7D1
S1130270829B06C040E062E083E00E949A00E2CFE5
S11302808299E0CF41E062E083E00E949A00DACFF5
S1130290CF93DF93EC018881813009F04CC041E0B9
S11302A064E00E94360041E065E081E00E9436008F
S11302B040E066E081E00E94360041E067E081E0D2
S11302C00E9436002DB1988130E1939FC001112422
S11302D0922F9F7E892B8DB99981923048F48DB1EC
S11302E0282F2F7D30E2939FC0011124822B8DB9DA
S11302F08A81823038F49DB1977F880F880F880FE8
S1130300892B8DB98B81823030F49DB19B7F880F0E
S1130310880F892B8DB98C81883038F42DB19DB12B
S11303202C7F8370822B892B8DB98C81843008F0CB
S1130330709A6E9A2CC081112AC040E064E081E07A
S11303400E94360040E065E081E00E94360041E012
S113035066E081E00E94360040E067E081E00E94B0
S113036036009981923048F48DB1282F2F7D30E2E8
S1130370939FC0011124822B8DB98B81823030F47C
S11303809DB19B7F880F880F892B8DB96E9ADF9161
S1130390CF9108956E9A779BFECF8FB16E98089592
S10703A0F894FFCFFB
S9030000FC
